{
    "_format": "hh-sol-artifact-1",
    "contractName": "EtherVault",
    "sourceName": "contracts/EtherVault.sol",
    "abi": [
        {
            "inputs": [
                {
                    "internalType": "contract StableCoin",
                    "name": "_token",
                    "type": "address"
                }
            ],
            "stateMutability": "nonpayable",
            "type": "constructor"
        },
        {
            "anonymous": false,
            "inputs": [
                {
                    "indexed": false,
                    "internalType": "uint256",
                    "name": "deposit",
                    "type": "uint256"
                },
                {
                    "indexed": false,
                    "internalType": "uint256",
                    "name": "mint",
                    "type": "uint256"
                }
            ],
            "name": "Deposit",
            "type": "event"
        },
        {
            "anonymous": false,
            "inputs": [
                {
                    "indexed": true,
                    "internalType": "address",
                    "name": "previousOwner",
                    "type": "address"
                },
                {
                    "indexed": true,
                    "internalType": "address",
                    "name": "newOwner",
                    "type": "address"
                }
            ],
            "name": "OwnershipTransferred",
            "type": "event"
        },
        {
            "anonymous": false,
            "inputs": [
                {
                    "indexed": false,
                    "internalType": "uint256",
                    "name": "withdraw",
                    "type": "uint256"
                },
                {
                    "indexed": false,
                    "internalType": "uint256",
                    "name": "burn",
                    "type": "uint256"
                }
            ],
            "name": "Withdraw",
            "type": "event"
        },
        {
            "inputs": [
                {
                    "internalType": "uint256",
                    "name": "etherDeposit",
                    "type": "uint256"
                }
            ],
            "name": "depositEther",
            "outputs": [],
            "stateMutability": "payable",
            "type": "function"
        },
        {
            "inputs": [],
            "name": "getBalance",
            "outputs": [
                {
                    "components": [
                        {
                            "internalType": "uint256",
                            "name": "etherCollateral",
                            "type": "uint256"
                        },
                        {
                            "internalType": "uint256",
                            "name": "tokenDebt",
                            "type": "uint256"
                        }
                    ],
                    "internalType": "struct EtherVault.Vault",
                    "name": "vault",
                    "type": "tuple"
                }
            ],
            "stateMutability": "view",
            "type": "function"
        },
        {
            "inputs": [],
            "name": "getEthUSDPrice",
            "outputs": [
                {
                    "internalType": "uint256",
                    "name": "",
                    "type": "uint256"
                }
            ],
            "stateMutability": "view",
            "type": "function"
        },
        {
            "inputs": [],
            "name": "owner",
            "outputs": [
                {
                    "internalType": "address",
                    "name": "",
                    "type": "address"
                }
            ],
            "stateMutability": "view",
            "type": "function"
        },
        {
            "inputs": [],
            "name": "priceFeed",
            "outputs": [
                {
                    "internalType": "contract AggregatorV3Interface",
                    "name": "",
                    "type": "address"
                }
            ],
            "stateMutability": "view",
            "type": "function"
        },
        {
            "inputs": [],
            "name": "renounceOwnership",
            "outputs": [],
            "stateMutability": "nonpayable",
            "type": "function"
        },
        {
            "inputs": [],
            "name": "token",
            "outputs": [
                {
                    "internalType": "contract StableCoin",
                    "name": "",
                    "type": "address"
                }
            ],
            "stateMutability": "view",
            "type": "function"
        },
        {
            "inputs": [
                {
                    "internalType": "address",
                    "name": "newOwner",
                    "type": "address"
                }
            ],
            "name": "transferOwnership",
            "outputs": [],
            "stateMutability": "nonpayable",
            "type": "function"
        },
        {
            "inputs": [
                {
                    "internalType": "uint256",
                    "name": "repayTokenAmount",
                    "type": "uint256"
                }
            ],
            "name": "withdrawEther",
            "outputs": [],
            "stateMutability": "nonpayable",
            "type": "function"
        }
    ],
    "bytecode": "0x60806040523480156200001157600080fd5b5060405162001664380380620016648339818101604052810190620000379190620001d7565b620000576200004b620000f460201b60201c565b620000fc60201b60201c565b80600260006101000a81548173ffffffffffffffffffffffffffffffffffffffff021916908373ffffffffffffffffffffffffffffffffffffffff1602179055507304c5046a1f4e3fff094c26dfcaa75ef293932f18600360006101000a81548173ffffffffffffffffffffffffffffffffffffffff021916908373ffffffffffffffffffffffffffffffffffffffff1602179055505062000270565b600033905090565b60008060009054906101000a900473ffffffffffffffffffffffffffffffffffffffff169050816000806101000a81548173ffffffffffffffffffffffffffffffffffffffff021916908373ffffffffffffffffffffffffffffffffffffffff1602179055508173ffffffffffffffffffffffffffffffffffffffff168173ffffffffffffffffffffffffffffffffffffffff167f8be0079c531659141344cd1fd0a4f28419497f9722a3daafe3b4186f6b6457e060405160405180910390a35050565b600081519050620001d18162000256565b92915050565b600060208284031215620001f057620001ef62000251565b5b60006200020084828501620001c0565b91505092915050565b6000620002168262000231565b9050919050565b60006200022a8262000209565b9050919050565b600073ffffffffffffffffffffffffffffffffffffffff82169050919050565b600080fd5b62000261816200021d565b81146200026d57600080fd5b50565b6113e480620002806000396000f3fe6080604052600436106100865760003560e01c8063741bef1a11610059578063741bef1a146101125780638da5cb5b1461013d578063d84549d714610168578063f2fde38b14610193578063fc0c546a146101bc57610086565b806312065fe01461008b57806326839f17146100b65780633bed33ce146100d2578063715018a6146100fb575b600080fd5b34801561009757600080fd5b506100a06101e7565b6040516100ad9190610ebc565b60405180910390f35b6100d060048036038101906100cb9190610ba4565b610252565b005b3480156100de57600080fd5b506100f960048036038101906100f49190610ba4565b610429565b005b34801561010757600080fd5b50610110610777565b005b34801561011e57600080fd5b506101276107ff565b6040516101349190610de6565b60405180910390f35b34801561014957600080fd5b50610152610825565b60405161015f9190610da2565b60405180910390f35b34801561017457600080fd5b5061017d61084e565b60405161018a9190610ed7565b60405180910390f35b34801561019f57600080fd5b506101ba60048036038101906101b59190610b77565b61090a565b005b3480156101c857600080fd5b506101d1610a02565b6040516101de9190610e01565b60405180910390f35b6101ef610af4565b600160003373ffffffffffffffffffffffffffffffffffffffff1673ffffffffffffffffffffffffffffffffffffffff16815260200190815260200160002060405180604001604052908160008201548152602001600182015481525050905090565b348114610294576040517f08c379a000000000000000000000000000000000000000000000000000000000815260040161028b90610e9c565b60405180910390fd5b600061029e61084e565b826102a991906110ca565b9050600260009054906101000a900473ffffffffffffffffffffffffffffffffffffffff1673ffffffffffffffffffffffffffffffffffffffff166340c10f1933836040518363ffffffff1660e01b8152600401610308929190610dbd565b600060405180830381600087803b15801561032257600080fd5b505af1158015610336573d6000803e3d6000fd5b5050505081600160003373ffffffffffffffffffffffffffffffffffffffff1673ffffffffffffffffffffffffffffffffffffffff168152602001908152602001600020600001600082825461038c9190610f2c565b9250508190555080600160003373ffffffffffffffffffffffffffffffffffffffff1673ffffffffffffffffffffffffffffffffffffffff16815260200190815260200160002060010160008282546103e59190610f2c565b925050819055507fa3af609bf46297028ce551832669030f9effef2b02606d02cbbcc40fe6b47c55828260405161041d929190610ef2565b60405180910390a15050565b600160003373ffffffffffffffffffffffffffffffffffffffff1673ffffffffffffffffffffffffffffffffffffffff168152602001908152602001600020600101548111156104ae576040517f08c379a00000000000000000000000000000000000000000000000000000000081526004016104a590610e1c565b60405180910390fd5b80600260009054906101000a900473ffffffffffffffffffffffffffffffffffffffff1673ffffffffffffffffffffffffffffffffffffffff166370a08231336040518263ffffffff1660e01b815260040161050a9190610da2565b60206040518083038186803b15801561052257600080fd5b505afa158015610536573d6000803e3d6000fd5b505050506040513d601f19601f8201168201806040525081019061055a9190610bd1565b101561059b576040517f08c379a000000000000000000000000000000000000000000000000000000000815260040161059290610e7c565b60405180910390fd5b60006105a561084e565b826105b09190610f82565b9050600260009054906101000a900473ffffffffffffffffffffffffffffffffffffffff1673ffffffffffffffffffffffffffffffffffffffff16639dc29fac33846040518363ffffffff1660e01b815260040161060f929190610dbd565b600060405180830381600087803b15801561062957600080fd5b505af115801561063d573d6000803e3d6000fd5b5050505080600160003373ffffffffffffffffffffffffffffffffffffffff1673ffffffffffffffffffffffffffffffffffffffff16815260200190815260200160002060000160008282546106939190611124565b9250508190555081600160003373ffffffffffffffffffffffffffffffffffffffff1673ffffffffffffffffffffffffffffffffffffffff16815260200190815260200160002060010160008282546106ec9190611124565b925050819055503373ffffffffffffffffffffffffffffffffffffffff166108fc829081150290604051600060405180830381858888f19350505050158015610739573d6000803e3d6000fd5b507f56ca301a9219608c91e7bcee90e083c19671d2cdcc96752c7af291cee5f9c8c8818360405161076b929190610ef2565b60405180910390a15050565b61077f610a28565b73ffffffffffffffffffffffffffffffffffffffff1661079d610825565b73ffffffffffffffffffffffffffffffffffffffff16146107f3576040517f08c379a00000000000000000000000000000000000000000000000000000000081526004016107ea90610e5c565b60405180910390fd5b6107fd6000610a30565b565b600360009054906101000a900473ffffffffffffffffffffffffffffffffffffffff1681565b60008060009054906101000a900473ffffffffffffffffffffffffffffffffffffffff16905090565b600080600360009054906101000a900473ffffffffffffffffffffffffffffffffffffffff1673ffffffffffffffffffffffffffffffffffffffff1663feaf968c6040518163ffffffff1660e01b815260040160a06040518083038186803b1580156108b957600080fd5b505afa1580156108cd573d6000803e3d6000fd5b505050506040513d601f19601f820116820180604052508101906108f19190610bfe565b5050509150506064816109049190610fb3565b91505090565b610912610a28565b73ffffffffffffffffffffffffffffffffffffffff16610930610825565b73ffffffffffffffffffffffffffffffffffffffff1614610986576040517f08c379a000000000000000000000000000000000000000000000000000000000815260040161097d90610e5c565b60405180910390fd5b600073ffffffffffffffffffffffffffffffffffffffff168173ffffffffffffffffffffffffffffffffffffffff1614156109f6576040517f08c379a00000000000000000000000000000000000000000000000000000000081526004016109ed90610e3c565b60405180910390fd5b6109ff81610a30565b50565b600260009054906101000a900473ffffffffffffffffffffffffffffffffffffffff1681565b600033905090565b60008060009054906101000a900473ffffffffffffffffffffffffffffffffffffffff169050816000806101000a81548173ffffffffffffffffffffffffffffffffffffffff021916908373ffffffffffffffffffffffffffffffffffffffff1602179055508173ffffffffffffffffffffffffffffffffffffffff168173ffffffffffffffffffffffffffffffffffffffff167f8be0079c531659141344cd1fd0a4f28419497f9722a3daafe3b4186f6b6457e060405160405180910390a35050565b604051806040016040528060008152602001600081525090565b600081359050610b1d81611352565b92915050565b600081519050610b3281611369565b92915050565b600081359050610b4781611380565b92915050565b600081519050610b5c81611380565b92915050565b600081519050610b7181611397565b92915050565b600060208284031215610b8d57610b8c61125a565b5b6000610b9b84828501610b0e565b91505092915050565b600060208284031215610bba57610bb961125a565b5b6000610bc884828501610b38565b91505092915050565b600060208284031215610be757610be661125a565b5b6000610bf584828501610b4d565b91505092915050565b600080600080600060a08688031215610c1a57610c1961125a565b5b6000610c2888828901610b62565b9550506020610c3988828901610b23565b9450506040610c4a88828901610b4d565b9350506060610c5b88828901610b4d565b9250506080610c6c88828901610b62565b9150509295509295909350565b610c8281611158565b82525050565b610c91816111b4565b82525050565b610ca0816111d8565b82525050565b6000610cb3601783610f1b565b9150610cbe8261125f565b602082019050919050565b6000610cd6602683610f1b565b9150610ce182611288565b604082019050919050565b6000610cf9602083610f1b565b9150610d04826112d7565b602082019050919050565b6000610d1c601883610f1b565b9150610d2782611300565b602082019050919050565b6000610d3f601a83610f1b565b9150610d4a82611329565b602082019050919050565b604082016000820151610d6b6000850182610d84565b506020820151610d7e6020850182610d84565b50505050565b610d8d81611194565b82525050565b610d9c81611194565b82525050565b6000602082019050610db76000830184610c79565b92915050565b6000604082019050610dd26000830185610c79565b610ddf6020830184610d93565b9392505050565b6000602082019050610dfb6000830184610c88565b92915050565b6000602082019050610e166000830184610c97565b92915050565b60006020820190508181036000830152610e3581610ca6565b9050919050565b60006020820190508181036000830152610e5581610cc9565b9050919050565b60006020820190508181036000830152610e7581610cec565b9050919050565b60006020820190508181036000830152610e9581610d0f565b9050919050565b60006020820190508181036000830152610eb581610d32565b9050919050565b6000604082019050610ed16000830184610d55565b92915050565b6000602082019050610eec6000830184610d93565b92915050565b6000604082019050610f076000830185610d93565b610f146020830184610d93565b9392505050565b600082825260208201905092915050565b6000610f3782611194565b9150610f4283611194565b9250827fffffffffffffffffffffffffffffffffffffffffffffffffffffffffffffffff03821115610f7757610f766111fc565b5b828201905092915050565b6000610f8d82611194565b9150610f9883611194565b925082610fa857610fa761122b565b5b828204905092915050565b6000610fbe8261116a565b9150610fc98361116a565b9250827f7fffffffffffffffffffffffffffffffffffffffffffffffffffffffffffffff0482116000841360008413161615611008576110076111fc565b5b817f80000000000000000000000000000000000000000000000000000000000000000583126000841260008413161615611045576110446111fc565b5b827f80000000000000000000000000000000000000000000000000000000000000000582126000841360008412161615611082576110816111fc565b5b827f7fffffffffffffffffffffffffffffffffffffffffffffffffffffffffffffff05821260008412600084121616156110bf576110be6111fc565b5b828202905092915050565b60006110d582611194565b91506110e083611194565b9250817fffffffffffffffffffffffffffffffffffffffffffffffffffffffffffffffff0483118215151615611119576111186111fc565b5b828202905092915050565b600061112f82611194565b915061113a83611194565b92508282101561114d5761114c6111fc565b5b828203905092915050565b600061116382611174565b9050919050565b6000819050919050565b600073ffffffffffffffffffffffffffffffffffffffff82169050919050565b6000819050919050565b600069ffffffffffffffffffff82169050919050565b60006111bf826111c6565b9050919050565b60006111d182611174565b9050919050565b60006111e3826111ea565b9050919050565b60006111f582611174565b9050919050565b7f4e487b7100000000000000000000000000000000000000000000000000000000600052601160045260246000fd5b7f4e487b7100000000000000000000000000000000000000000000000000000000600052601260045260246000fd5b600080fd5b7f7769746864726177206c696d6974206578636565646564000000000000000000600082015250565b7f4f776e61626c653a206e6577206f776e657220697320746865207a65726f206160008201527f6464726573730000000000000000000000000000000000000000000000000000602082015250565b7f4f776e61626c653a2063616c6c6572206973206e6f7420746865206f776e6572600082015250565b7f6e6f7420656e6f75676820746f6b656e2062616c616e63650000000000000000600082015250565b7f77726f6e6720616d6f756e74206f662065746865722073656e74000000000000600082015250565b61135b81611158565b811461136657600080fd5b50565b6113728161116a565b811461137d57600080fd5b50565b61138981611194565b811461139457600080fd5b50565b6113a08161119e565b81146113ab57600080fd5b5056fea264697066735822122043cfb304a7a820fccc16a62ea40cd788133a939042278401b29837981a6b442e64736f6c63430008060033",
    "linkReferences": {},
    "deployedLinkReferences": {}
}